{
  "_format": "hh-sol-artifact-1",
  "contractName": "SocialNetwork",
  "sourceName": "contracts/SocialNetwork.sol",
  "abi": [
    {
      "inputs": [],
      "stateMutability": "nonpayable",
      "type": "constructor"
    },
    {
      "anonymous": false,
      "inputs": [
        {
          "indexed": false,
          "internalType": "uint256",
          "name": "postId",
          "type": "uint256"
        },
        {
          "indexed": false,
          "internalType": "address",
          "name": "author",
          "type": "address"
        },
        {
          "indexed": false,
          "internalType": "string",
          "name": "content",
          "type": "string"
        },
        {
          "indexed": false,
          "internalType": "uint256",
          "name": "timestamp",
          "type": "uint256"
        },
        {
          "indexed": false,
          "internalType": "bool",
          "name": "isFake",
          "type": "bool"
        }
      ],
      "name": "PostCreated",
      "type": "event"
    },
    {
      "anonymous": false,
      "inputs": [
        {
          "indexed": false,
          "internalType": "uint256",
          "name": "postId",
          "type": "uint256"
        },
        {
          "indexed": false,
          "internalType": "address",
          "name": "reporter",
          "type": "address"
        },
        {
          "indexed": false,
          "internalType": "bool",
          "name": "isFake",
          "type": "bool"
        },
        {
          "indexed": false,
          "internalType": "bool",
          "name": "success",
          "type": "bool"
        }
      ],
      "name": "PostReported",
      "type": "event"
    },
    {
      "inputs": [
        {
          "internalType": "address",
          "name": "",
          "type": "address"
        }
      ],
      "name": "balances",
      "outputs": [
        {
          "internalType": "uint256",
          "name": "",
          "type": "uint256"
        }
      ],
      "stateMutability": "view",
      "type": "function"
    },
    {
      "inputs": [
        {
          "internalType": "string",
          "name": "_content",
          "type": "string"
        }
      ],
      "name": "createPost",
      "outputs": [],
      "stateMutability": "nonpayable",
      "type": "function"
    },
    {
      "inputs": [],
      "name": "postCount",
      "outputs": [
        {
          "internalType": "uint256",
          "name": "",
          "type": "uint256"
        }
      ],
      "stateMutability": "view",
      "type": "function"
    },
    {
      "inputs": [
        {
          "internalType": "uint256",
          "name": "",
          "type": "uint256"
        }
      ],
      "name": "posts",
      "outputs": [
        {
          "internalType": "address",
          "name": "author",
          "type": "address"
        },
        {
          "internalType": "string",
          "name": "content",
          "type": "string"
        },
        {
          "internalType": "uint256",
          "name": "timestamp",
          "type": "uint256"
        },
        {
          "internalType": "bool",
          "name": "isFake",
          "type": "bool"
        }
      ],
      "stateMutability": "view",
      "type": "function"
    },
    {
      "inputs": [
        {
          "internalType": "uint256",
          "name": "_postId",
          "type": "uint256"
        }
      ],
      "name": "reportPost",
      "outputs": [],
      "stateMutability": "nonpayable",
      "type": "function"
    },
    {
      "inputs": [
        {
          "internalType": "uint256",
          "name": "",
          "type": "uint256"
        },
        {
          "internalType": "address",
          "name": "",
          "type": "address"
        }
      ],
      "name": "reportedPosts",
      "outputs": [
        {
          "internalType": "bool",
          "name": "",
          "type": "bool"
        }
      ],
      "stateMutability": "view",
      "type": "function"
    }
  ],
  "bytecode": "0x608060405234801561001057600080fd5b50600060018190555061109e806100286000396000f3fe608060405234801561001057600080fd5b50600436106100625760003560e01c80630b1e7f831461006757806317906c2e1461009a57806327e235e3146100b85780634457d5c1146100e85780636e6784da14610118578063c7303c6114610134575b600080fd5b610081600480360381019061007c9190610713565b610150565b604051610091949392919061083b565b60405180910390f35b6100a2610235565b6040516100af9190610887565b60405180910390f35b6100d260048036038101906100cd91906108ce565b61023b565b6040516100df9190610887565b60405180910390f35b61010260048036038101906100fd91906108fb565b610253565b60405161010f919061093b565b60405180910390f35b610132600480360381019061012d9190610713565b610282565b005b61014e60048036038101906101499190610a8b565b61057a565b005b60006020528060005260406000206000915090508060000160009054906101000a900473ffffffffffffffffffffffffffffffffffffffff169080600101805461019990610b03565b80601f01602080910402602001604051908101604052809291908181526020018280546101c590610b03565b80156102125780601f106101e757610100808354040283529160200191610212565b820191906000526020600020905b8154815290600101906020018083116101f557829003601f168201915b5050505050908060020154908060030160009054906101000a900460ff16905084565b60015481565b60026020528060005260406000206000915090505481565b60036020528160005260406000206020528060005260406000206000915091509054906101000a900460ff1681565b6001548111156102c7576040517f08c379a00000000000000000000000000000000000000000000000000000000081526004016102be90610b80565b60405180910390fd5b6003600082815260200190815260200160002060003373ffffffffffffffffffffffffffffffffffffffff1673ffffffffffffffffffffffffffffffffffffffff16815260200190815260200160002060009054906101000a900460ff1615610365576040517f08c379a000000000000000000000000000000000000000000000000000000000815260040161035c90610bec565b60405180910390fd5b600080600083815260200190815260200160002060030160009054906101000a900460ff16156103f557662386f26fc10000600260003373ffffffffffffffffffffffffffffffffffffffff1673ffffffffffffffffffffffffffffffffffffffff16815260200190815260200160002060008282546103e59190610c3b565b92505081905550600190506104ae565b662386f26fc10000600260003373ffffffffffffffffffffffffffffffffffffffff1673ffffffffffffffffffffffffffffffffffffffff16815260200190815260200160002054106104a857662386f26fc10000600260003373ffffffffffffffffffffffffffffffffffffffff1673ffffffffffffffffffffffffffffffffffffffff16815260200190815260200160002060008282546104989190610c6f565b92505081905550600190506104ad565b600090505b5b60016003600084815260200190815260200160002060003373ffffffffffffffffffffffffffffffffffffffff1673ffffffffffffffffffffffffffffffffffffffff16815260200190815260200160002060006101000a81548160ff0219169083151502179055507f5a1dea6a1eb87f332718fd2840108f2e8476015a92177e5a9c84c59be01f1bfa823360008086815260200190815260200160002060030160009054906101000a900460ff168460405161056e9493929190610ca3565b60405180910390a15050565b6001600081548092919061058d90610ce8565b919050555060008060026001546105a49190610d5f565b149050600042905060405180608001604052803373ffffffffffffffffffffffffffffffffffffffff168152602001848152602001828152602001831515815250600080600154815260200190815260200160002060008201518160000160006101000a81548173ffffffffffffffffffffffffffffffffffffffff021916908373ffffffffffffffffffffffffffffffffffffffff16021790555060208201518160010190816106559190610f3c565b506040820151816002015560608201518160030160006101000a81548160ff0219169083151502179055509050507f9766352811496919d8d2129e0c17fa47675e88cd6a5647533b8dfe0c23637630600154338584866040516106bc95949392919061100e565b60405180910390a1505050565b6000604051905090565b600080fd5b600080fd5b6000819050919050565b6106f0816106dd565b81146106fb57600080fd5b50565b60008135905061070d816106e7565b92915050565b600060208284031215610729576107286106d3565b5b6000610737848285016106fe565b91505092915050565b600073ffffffffffffffffffffffffffffffffffffffff82169050919050565b600061076b82610740565b9050919050565b61077b81610760565b82525050565b600081519050919050565b600082825260208201905092915050565b60005b838110156107bb5780820151818401526020810190506107a0565b60008484015250505050565b6000601f19601f8301169050919050565b60006107e382610781565b6107ed818561078c565b93506107fd81856020860161079d565b610806816107c7565b840191505092915050565b61081a816106dd565b82525050565b60008115159050919050565b61083581610820565b82525050565b60006080820190506108506000830187610772565b818103602083015261086281866107d8565b90506108716040830185610811565b61087e606083018461082c565b95945050505050565b600060208201905061089c6000830184610811565b92915050565b6108ab81610760565b81146108b657600080fd5b50565b6000813590506108c8816108a2565b92915050565b6000602082840312156108e4576108e36106d3565b5b60006108f2848285016108b9565b91505092915050565b60008060408385031215610912576109116106d3565b5b6000610920858286016106fe565b9250506020610931858286016108b9565b9150509250929050565b6000602082019050610950600083018461082c565b92915050565b600080fd5b600080fd5b7f4e487b7100000000000000000000000000000000000000000000000000000000600052604160045260246000fd5b610998826107c7565b810181811067ffffffffffffffff821117156109b7576109b6610960565b5b80604052505050565b60006109ca6106c9565b90506109d6828261098f565b919050565b600067ffffffffffffffff8211156109f6576109f5610960565b5b6109ff826107c7565b9050602081019050919050565b82818337600083830152505050565b6000610a2e610a29846109db565b6109c0565b905082815260208101848484011115610a4a57610a4961095b565b5b610a55848285610a0c565b509392505050565b600082601f830112610a7257610a71610956565b5b8135610a82848260208601610a1b565b91505092915050565b600060208284031215610aa157610aa06106d3565b5b600082013567ffffffffffffffff811115610abf57610abe6106d8565b5b610acb84828501610a5d565b91505092915050565b7f4e487b7100000000000000000000000000000000000000000000000000000000600052602260045260246000fd5b60006002820490506001821680610b1b57607f821691505b602082108103610b2e57610b2d610ad4565b5b50919050565b7f496e76616c696420706f73742049440000000000000000000000000000000000600082015250565b6000610b6a600f8361078c565b9150610b7582610b34565b602082019050919050565b60006020820190508181036000830152610b9981610b5d565b9050919050565b7f506f737420616c7265616479207265706f727465642062792075736572000000600082015250565b6000610bd6601d8361078c565b9150610be182610ba0565b602082019050919050565b60006020820190508181036000830152610c0581610bc9565b9050919050565b7f4e487b7100000000000000000000000000000000000000000000000000000000600052601160045260246000fd5b6000610c46826106dd565b9150610c51836106dd565b9250828201905080821115610c6957610c68610c0c565b5b92915050565b6000610c7a826106dd565b9150610c85836106dd565b9250828203905081811115610c9d57610c9c610c0c565b5b92915050565b6000608082019050610cb86000830187610811565b610cc56020830186610772565b610cd2604083018561082c565b610cdf606083018461082c565b95945050505050565b6000610cf3826106dd565b91507fffffffffffffffffffffffffffffffffffffffffffffffffffffffffffffffff8203610d2557610d24610c0c565b5b600182019050919050565b7f4e487b7100000000000000000000000000000000000000000000000000000000600052601260045260246000fd5b6000610d6a826106dd565b9150610d75836106dd565b925082610d8557610d84610d30565b5b828206905092915050565b60008190508160005260206000209050919050565b60006020601f8301049050919050565b600082821b905092915050565b600060088302610df27fffffffffffffffffffffffffffffffffffffffffffffffffffffffffffffffff82610db5565b610dfc8683610db5565b95508019841693508086168417925050509392505050565b6000819050919050565b6000610e39610e34610e2f846106dd565b610e14565b6106dd565b9050919050565b6000819050919050565b610e5383610e1e565b610e67610e5f82610e40565b848454610dc2565b825550505050565b600090565b610e7c610e6f565b610e87818484610e4a565b505050565b5b81811015610eab57610ea0600082610e74565b600181019050610e8d565b5050565b601f821115610ef057610ec181610d90565b610eca84610da5565b81016020851015610ed9578190505b610eed610ee585610da5565b830182610e8c565b50505b505050565b600082821c905092915050565b6000610f1360001984600802610ef5565b1980831691505092915050565b6000610f2c8383610f02565b9150826002028217905092915050565b610f4582610781565b67ffffffffffffffff811115610f5e57610f5d610960565b5b610f688254610b03565b610f73828285610eaf565b600060209050601f831160018114610fa65760008415610f94578287015190505b610f9e8582610f20565b865550611006565b601f198416610fb486610d90565b60005b82811015610fdc57848901518255600182019150602085019450602081019050610fb7565b86831015610ff95784890151610ff5601f891682610f02565b8355505b6001600288020188555050505b505050505050565b600060a0820190506110236000830188610811565b6110306020830187610772565b818103604083015261104281866107d8565b90506110516060830185610811565b61105e608083018461082c565b969550505050505056fea264697066735822122094238523825b26ac7b14694b2369d9ba31c2dbc23b7ffb3177327a5405a6239c64736f6c63430008180033",
  "linkReferences": {},
  "deployedLinkReferences": {}
}